{
  "contractName": "RetroApeClub",
  "abi": [
    {
      "inputs": [
        {
          "internalType": "string",
          "name": "baseUri",
          "type": "string"
        },
        {
          "internalType": "string",
          "name": "_placeholder",
          "type": "string"
        }
      ],
      "stateMutability": "nonpayable",
      "type": "constructor"
    },
    {
      "anonymous": false,
      "inputs": [
        {
          "indexed": true,
          "internalType": "address",
          "name": "owner",
          "type": "address"
        },
        {
          "indexed": true,
          "internalType": "address",
          "name": "approved",
          "type": "address"
        },
        {
          "indexed": true,
          "internalType": "uint256",
          "name": "tokenId",
          "type": "uint256"
        }
      ],
      "name": "Approval",
      "type": "event"
    },
    {
      "anonymous": false,
      "inputs": [
        {
          "indexed": true,
          "internalType": "address",
          "name": "owner",
          "type": "address"
        },
        {
          "indexed": true,
          "internalType": "address",
          "name": "operator",
          "type": "address"
        },
        {
          "indexed": false,
          "internalType": "bool",
          "name": "approved",
          "type": "bool"
        }
      ],
      "name": "ApprovalForAll",
      "type": "event"
    },
    {
      "anonymous": false,
      "inputs": [
        {
          "indexed": true,
          "internalType": "address",
          "name": "previousOwner",
          "type": "address"
        },
        {
          "indexed": true,
          "internalType": "address",
          "name": "newOwner",
          "type": "address"
        }
      ],
      "name": "OwnershipTransferred",
      "type": "event"
    },
    {
      "anonymous": false,
      "inputs": [
        {
          "indexed": false,
          "internalType": "address",
          "name": "account",
          "type": "address"
        }
      ],
      "name": "Paused",
      "type": "event"
    },
    {
      "anonymous": false,
      "inputs": [
        {
          "indexed": true,
          "internalType": "address",
          "name": "from",
          "type": "address"
        },
        {
          "indexed": true,
          "internalType": "address",
          "name": "to",
          "type": "address"
        },
        {
          "indexed": true,
          "internalType": "uint256",
          "name": "tokenId",
          "type": "uint256"
        }
      ],
      "name": "Transfer",
      "type": "event"
    },
    {
      "anonymous": false,
      "inputs": [
        {
          "indexed": false,
          "internalType": "address",
          "name": "account",
          "type": "address"
        }
      ],
      "name": "Unpaused",
      "type": "event"
    },
    {
      "anonymous": false,
      "inputs": [
        {
          "indexed": true,
          "internalType": "uint256",
          "name": "id",
          "type": "uint256"
        },
        {
          "indexed": false,
          "internalType": "address",
          "name": "minter",
          "type": "address"
        }
      ],
      "name": "mintRetroApeClub",
      "type": "event"
    },
    {
      "inputs": [],
      "name": "RetroApeClubPrice",
      "outputs": [
        {
          "internalType": "uint256",
          "name": "",
          "type": "uint256"
        }
      ],
      "stateMutability": "view",
      "type": "function",
      "constant": true
    },
    {
      "inputs": [
        {
          "internalType": "address",
          "name": "to",
          "type": "address"
        },
        {
          "internalType": "uint256",
          "name": "tokenId",
          "type": "uint256"
        }
      ],
      "name": "approve",
      "outputs": [],
      "stateMutability": "nonpayable",
      "type": "function"
    },
    {
      "inputs": [
        {
          "internalType": "address",
          "name": "owner",
          "type": "address"
        }
      ],
      "name": "balanceOf",
      "outputs": [
        {
          "internalType": "uint256",
          "name": "",
          "type": "uint256"
        }
      ],
      "stateMutability": "view",
      "type": "function",
      "constant": true
    },
    {
      "inputs": [
        {
          "internalType": "uint256",
          "name": "tokenId",
          "type": "uint256"
        }
      ],
      "name": "burn",
      "outputs": [],
      "stateMutability": "nonpayable",
      "type": "function"
    },
    {
      "inputs": [
        {
          "internalType": "address",
          "name": "",
          "type": "address"
        }
      ],
      "name": "freeMintList",
      "outputs": [
        {
          "internalType": "bool",
          "name": "",
          "type": "bool"
        }
      ],
      "stateMutability": "view",
      "type": "function",
      "constant": true
    },
    {
      "inputs": [
        {
          "internalType": "uint256",
          "name": "tokenId",
          "type": "uint256"
        }
      ],
      "name": "getApproved",
      "outputs": [
        {
          "internalType": "address",
          "name": "",
          "type": "address"
        }
      ],
      "stateMutability": "view",
      "type": "function",
      "constant": true
    },
    {
      "inputs": [
        {
          "internalType": "address",
          "name": "owner",
          "type": "address"
        },
        {
          "internalType": "address",
          "name": "operator",
          "type": "address"
        }
      ],
      "name": "isApprovedForAll",
      "outputs": [
        {
          "internalType": "bool",
          "name": "",
          "type": "bool"
        }
      ],
      "stateMutability": "view",
      "type": "function",
      "constant": true
    },
    {
      "inputs": [
        {
          "internalType": "address",
          "name": "",
          "type": "address"
        }
      ],
      "name": "isFreeMintClaimed",
      "outputs": [
        {
          "internalType": "bool",
          "name": "",
          "type": "bool"
        }
      ],
      "stateMutability": "view",
      "type": "function",
      "constant": true
    },
    {
      "inputs": [],
      "name": "isRevealed",
      "outputs": [
        {
          "internalType": "bool",
          "name": "",
          "type": "bool"
        }
      ],
      "stateMutability": "view",
      "type": "function",
      "constant": true
    },
    {
      "inputs": [],
      "name": "name",
      "outputs": [
        {
          "internalType": "string",
          "name": "",
          "type": "string"
        }
      ],
      "stateMutability": "view",
      "type": "function",
      "constant": true
    },
    {
      "inputs": [],
      "name": "owner",
      "outputs": [
        {
          "internalType": "address",
          "name": "",
          "type": "address"
        }
      ],
      "stateMutability": "view",
      "type": "function",
      "constant": true
    },
    {
      "inputs": [
        {
          "internalType": "uint256",
          "name": "tokenId",
          "type": "uint256"
        }
      ],
      "name": "ownerOf",
      "outputs": [
        {
          "internalType": "address",
          "name": "",
          "type": "address"
        }
      ],
      "stateMutability": "view",
      "type": "function",
      "constant": true
    },
    {
      "inputs": [],
      "name": "paused",
      "outputs": [
        {
          "internalType": "bool",
          "name": "",
          "type": "bool"
        }
      ],
      "stateMutability": "view",
      "type": "function",
      "constant": true
    },
    {
      "inputs": [],
      "name": "placeholder",
      "outputs": [
        {
          "internalType": "string",
          "name": "",
          "type": "string"
        }
      ],
      "stateMutability": "view",
      "type": "function",
      "constant": true
    },
    {
      "inputs": [],
      "name": "renounceOwnership",
      "outputs": [],
      "stateMutability": "nonpayable",
      "type": "function"
    },
    {
      "inputs": [
        {
          "internalType": "address",
          "name": "from",
          "type": "address"
        },
        {
          "internalType": "address",
          "name": "to",
          "type": "address"
        },
        {
          "internalType": "uint256",
          "name": "tokenId",
          "type": "uint256"
        }
      ],
      "name": "safeTransferFrom",
      "outputs": [],
      "stateMutability": "nonpayable",
      "type": "function"
    },
    {
      "inputs": [
        {
          "internalType": "address",
          "name": "from",
          "type": "address"
        },
        {
          "internalType": "address",
          "name": "to",
          "type": "address"
        },
        {
          "internalType": "uint256",
          "name": "tokenId",
          "type": "uint256"
        },
        {
          "internalType": "bytes",
          "name": "_data",
          "type": "bytes"
        }
      ],
      "name": "safeTransferFrom",
      "outputs": [],
      "stateMutability": "nonpayable",
      "type": "function"
    },
    {
      "inputs": [
        {
          "internalType": "address",
          "name": "operator",
          "type": "address"
        },
        {
          "internalType": "bool",
          "name": "approved",
          "type": "bool"
        }
      ],
      "name": "setApprovalForAll",
      "outputs": [],
      "stateMutability": "nonpayable",
      "type": "function"
    },
    {
      "inputs": [],
      "name": "symbol",
      "outputs": [
        {
          "internalType": "string",
          "name": "",
          "type": "string"
        }
      ],
      "stateMutability": "view",
      "type": "function",
      "constant": true
    },
    {
      "inputs": [
        {
          "internalType": "address",
          "name": "from",
          "type": "address"
        },
        {
          "internalType": "address",
          "name": "to",
          "type": "address"
        },
        {
          "internalType": "uint256",
          "name": "tokenId",
          "type": "uint256"
        }
      ],
      "name": "transferFrom",
      "outputs": [],
      "stateMutability": "nonpayable",
      "type": "function"
    },
    {
      "inputs": [
        {
          "internalType": "address",
          "name": "newOwner",
          "type": "address"
        }
      ],
      "name": "transferOwnership",
      "outputs": [],
      "stateMutability": "nonpayable",
      "type": "function"
    },
    {
      "inputs": [
        {
          "internalType": "address",
          "name": "",
          "type": "address"
        }
      ],
      "name": "walletMintCount",
      "outputs": [
        {
          "internalType": "uint256",
          "name": "",
          "type": "uint256"
        }
      ],
      "stateMutability": "view",
      "type": "function",
      "constant": true
    },
    {
      "inputs": [],
      "name": "totalSupply",
      "outputs": [
        {
          "internalType": "uint256",
          "name": "",
          "type": "uint256"
        }
      ],
      "stateMutability": "view",
      "type": "function",
      "constant": true
    },
    {
      "inputs": [
        {
          "internalType": "uint256",
          "name": "tokenId",
          "type": "uint256"
        }
      ],
      "name": "tokenURI",
      "outputs": [
        {
          "internalType": "string",
          "name": "",
          "type": "string"
        }
      ],
      "stateMutability": "view",
      "type": "function",
      "constant": true
    },
    {
      "inputs": [
        {
          "internalType": "address[]",
          "name": "_freeMintList",
          "type": "address[]"
        }
      ],
      "name": "setFreeMintList",
      "outputs": [],
      "stateMutability": "nonpayable",
      "type": "function"
    },
    {
      "inputs": [
        {
          "internalType": "address[]",
          "name": "_freeMintList",
          "type": "address[]"
        }
      ],
      "name": "unsetFreeMintList",
      "outputs": [],
      "stateMutability": "nonpayable",
      "type": "function"
    },
    {
      "inputs": [
        {
          "internalType": "address",
          "name": "_financeAddress",
          "type": "address"
        }
      ],
      "name": "setFinanceAddress",
      "outputs": [],
      "stateMutability": "nonpayable",
      "type": "function"
    },
    {
      "inputs": [
        {
          "internalType": "string",
          "name": "_placeholder",
          "type": "string"
        }
      ],
      "name": "setPlaceholder",
      "outputs": [],
      "stateMutability": "nonpayable",
      "type": "function"
    },
    {
      "inputs": [
        {
          "internalType": "bool",
          "name": "_isRevealed",
          "type": "bool"
        }
      ],
      "name": "setRevealed",
      "outputs": [],
      "stateMutability": "nonpayable",
      "type": "function"
    },
    {
      "inputs": [
        {
          "internalType": "uint256",
          "name": "_quantity",
          "type": "uint256"
        }
      ],
      "name": "mint",
      "outputs": [],
      "stateMutability": "payable",
      "type": "function",
      "payable": true
    },
    {
      "inputs": [],
      "name": "freeMint",
      "outputs": [],
      "stateMutability": "payable",
      "type": "function",
      "payable": true
    },
    {
      "inputs": [
        {
          "internalType": "string",
          "name": "baseUri",
          "type": "string"
        }
      ],
      "name": "setBaseUri",
      "outputs": [],
      "stateMutability": "nonpayable",
      "type": "function"
    },
    {
      "inputs": [
        {
          "internalType": "bool",
          "name": "isPaused",
          "type": "bool"
        }
      ],
      "name": "pause",
      "outputs": [],
      "stateMutability": "nonpayable",
      "type": "function"
    },
    {
      "inputs": [
        {
          "internalType": "bytes4",
          "name": "interfaceId",
          "type": "bytes4"
        }
      ],
      "name": "supportsInterface",
      "outputs": [
        {
          "internalType": "bool",
          "name": "",
          "type": "bool"
        }
      ],
      "stateMutability": "view",
      "type": "function",
      "constant": true
    }
  ],
  "bytecode": "0x608060405266b1a2bc2ec50000600a55600b8054610100600160a81b0319167477d2a16dce85372a37719754bffebdd4266a5e2d001790553480156200004457600080fd5b50604051620030bc380380620030bc833981016040819052620000679162000510565b604080518082018252600c81526b2932ba3937a0b832a1b63ab160a11b60208083019182528351808501909452600384526252414360e81b908401528151919291620000b6916000916200039d565b508051620000cc9060019060208401906200039d565b505050620000e9620000e36200012b60201b60201c565b6200012f565b6006805460ff60a01b19169055620001018262000181565b8051620001169060099060208401906200039d565b50620001236001620001e9565b5050620005b7565b3390565b600680546001600160a01b038381166001600160a01b0319831681179093556040519116919082907f8be0079c531659141344cd1fd0a4f28419497f9722a3daafe3b4186f6b6457e090600090a35050565b6006546001600160a01b03163314620001d05760405162461bcd60e51b815260206004820181905260248201526000805160206200309c83398151915260448201526064015b60405180910390fd5b8051620001e59060089060208401906200039d565b5050565b6006546001600160a01b03163314620002345760405162461bcd60e51b815260206004820181905260248201526000805160206200309c8339815191526044820152606401620001c7565b600181151514156200024d576200024a62000257565b50565b6200024a62000306565b6200026b600654600160a01b900460ff1690565b15620002ad5760405162461bcd60e51b815260206004820152601060248201526f14185d5cd8589b194e881c185d5cd95960821b6044820152606401620001c7565b6006805460ff60a01b1916600160a01b1790557f62e78cea01bee320cd4e420270b5ea74000d11b0c9f74754ebdbfc544b05a258620002e93390565b6040516001600160a01b03909116815260200160405180910390a1565b6200031a600654600160a01b900460ff1690565b620003685760405162461bcd60e51b815260206004820152601460248201527f5061757361626c653a206e6f74207061757365640000000000000000000000006044820152606401620001c7565b6006805460ff60a01b191690557f5db9ee0a495bf2e6ff9c91a7834c1ba4fdd244a5e8aa4e537bd38aeae4b073aa33620002e9565b828054620003ab906200057a565b90600052602060002090601f016020900481019282620003cf57600085556200041a565b82601f10620003ea57805160ff19168380011785556200041a565b828001600101855582156200041a579182015b828111156200041a578251825591602001919060010190620003fd565b50620004289291506200042c565b5090565b5b808211156200042857600081556001016200042d565b634e487b7160e01b600052604160045260246000fd5b600082601f8301126200046b57600080fd5b81516001600160401b038082111562000488576200048862000443565b604051601f8301601f19908116603f01168101908282118183101715620004b357620004b362000443565b81604052838152602092508683858801011115620004d057600080fd5b600091505b83821015620004f45785820183015181830184015290820190620004d5565b83821115620005065760008385830101525b9695505050505050565b600080604083850312156200052457600080fd5b82516001600160401b03808211156200053c57600080fd5b6200054a8683870162000459565b935060208501519150808211156200056157600080fd5b50620005708582860162000459565b9150509250929050565b600181811c908216806200058f57607f821691505b60208210811415620005b157634e487b7160e01b600052602260045260246000fd5b50919050565b612ad580620005c76000396000f3fe6080604052600436106102195760003560e01c806370a082311161011d578063a0bcfc7f116100b0578063c87b56dd1161007f578063e985e9c511610064578063e985e9c514610606578063f2fde38b1461064f578063f4e8b4501461066f57600080fd5b8063c87b56dd146105c6578063e0a80853146105e657600080fd5b8063a0bcfc7f14610536578063a22cb46514610556578063a532409314610576578063b88d4fde146105a657600080fd5b806393ecb0c6116100ec57806393ecb0c6146104cc57806395d89b41146104f95780639e75143c1461050e578063a0712d681461052357600080fd5b806370a0823114610459578063715018a614610479578063780f8d661461048e5780638da5cb5b146104ae57600080fd5b806342966c68116101b05780635b70ea9f1161017f57806360b8faa31161016457806360b8faa3146103f357806362eb30b9146104235780636352211e1461043957600080fd5b80635b70ea9f146103cc5780635c975abb146103d457600080fd5b806342966c68146103525780634e5df7501461037257806354214f691461039257806358c05975146103ac57600080fd5b8063095ea7b3116101ec578063095ea7b3146102cf57806318160ddd146102ef57806323b872dd1461031257806342842e0e1461033257600080fd5b806301ffc9a71461021e57806302329a291461025357806306fdde0314610275578063081812fc14610297575b600080fd5b34801561022a57600080fd5b5061023e610239366004612497565b61068f565b60405190151581526020015b60405180910390f35b34801561025f57600080fd5b5061027361026e3660046124d0565b6106a0565b005b34801561028157600080fd5b5061028a61071d565b60405161024a9190612543565b3480156102a357600080fd5b506102b76102b2366004612556565b6107af565b6040516001600160a01b03909116815260200161024a565b3480156102db57600080fd5b506102736102ea366004612586565b610855565b3480156102fb57600080fd5b50610304610987565b60405190815260200161024a565b34801561031e57600080fd5b5061027361032d3660046125b0565b610997565b34801561033e57600080fd5b5061027361034d3660046125b0565b610a1f565b34801561035e57600080fd5b5061027361036d366004612556565b610a3a565b34801561037e57600080fd5b5061027361038d3660046125ec565b610abe565b34801561039e57600080fd5b50600b5461023e9060ff1681565b3480156103b857600080fd5b506102736103c736600461264e565b610b54565b610273610c1a565b3480156103e057600080fd5b50600654600160a01b900460ff1661023e565b3480156103ff57600080fd5b5061023e61040e3660046125ec565b600d6020526000908152604090205460ff1681565b34801561042f57600080fd5b50610304600a5481565b34801561044557600080fd5b506102b7610454366004612556565b610e11565b34801561046557600080fd5b506103046104743660046125ec565b610e9c565b34801561048557600080fd5b50610273610f36565b34801561049a57600080fd5b506102736104a936600461264e565b610f9c565b3480156104ba57600080fd5b506006546001600160a01b03166102b7565b3480156104d857600080fd5b506103046104e73660046125ec565b600c6020526000908152604090205481565b34801561050557600080fd5b5061028a61105e565b34801561051a57600080fd5b5061028a61106d565b610273610531366004612556565b6110fb565b34801561054257600080fd5b50610273610551366004612753565b6112a0565b34801561056257600080fd5b5061027361057136600461279c565b61130d565b34801561058257600080fd5b5061023e6105913660046125ec565b600e6020526000908152604090205460ff1681565b3480156105b257600080fd5b506102736105c13660046127cf565b611318565b3480156105d257600080fd5b5061028a6105e1366004612556565b6113a6565b3480156105f257600080fd5b506102736106013660046124d0565b61152b565b34801561061257600080fd5b5061023e61062136600461284b565b6001600160a01b03918216600090815260056020908152604080832093909416825291909152205460ff1690565b34801561065b57600080fd5b5061027361066a3660046125ec565b611598565b34801561067b57600080fd5b5061027361068a366004612753565b611677565b600061069a826116e4565b92915050565b6006546001600160a01b031633146106ff5760405162461bcd60e51b815260206004820181905260248201527f4f776e61626c653a2063616c6c6572206973206e6f7420746865206f776e657260448201526064015b60405180910390fd5b600181151514156107155761071261177f565b50565b61071261184c565b60606000805461072c90612875565b80601f016020809104026020016040519081016040528092919081815260200182805461075890612875565b80156107a55780601f1061077a576101008083540402835291602001916107a5565b820191906000526020600020905b81548152906001019060200180831161078857829003601f168201915b5050505050905090565b6000818152600260205260408120546001600160a01b03166108395760405162461bcd60e51b815260206004820152602c60248201527f4552433732313a20617070726f76656420717565727920666f72206e6f6e657860448201527f697374656e7420746f6b656e000000000000000000000000000000000000000060648201526084016106f6565b506000908152600460205260409020546001600160a01b031690565b600061086082610e11565b9050806001600160a01b0316836001600160a01b031614156108ea5760405162461bcd60e51b815260206004820152602160248201527f4552433732313a20617070726f76616c20746f2063757272656e74206f776e6560448201527f720000000000000000000000000000000000000000000000000000000000000060648201526084016106f6565b336001600160a01b038216148061090657506109068133610621565b6109785760405162461bcd60e51b815260206004820152603860248201527f4552433732313a20617070726f76652063616c6c6572206973206e6f74206f7760448201527f6e6572206e6f7220617070726f76656420666f7220616c6c000000000000000060648201526084016106f6565b61098283836118f4565b505050565b600061099260075490565b905090565b6109a2335b8261196f565b610a145760405162461bcd60e51b815260206004820152603160248201527f4552433732313a207472616e736665722063616c6c6572206973206e6f74206f60448201527f776e6572206e6f7220617070726f76656400000000000000000000000000000060648201526084016106f6565b610982838383611a77565b61098283838360405180602001604052806000815250611318565b610a433361099c565b610ab55760405162461bcd60e51b815260206004820152603060248201527f4552433732314275726e61626c653a2063616c6c6572206973206e6f74206f7760448201527f6e6572206e6f7220617070726f7665640000000000000000000000000000000060648201526084016106f6565b61071281611c5c565b6006546001600160a01b03163314610b185760405162461bcd60e51b815260206004820181905260248201527f4f776e61626c653a2063616c6c6572206973206e6f7420746865206f776e657260448201526064016106f6565b600b80546001600160a01b038316610100027fffffffffffffffffffffff0000000000000000000000000000000000000000ff90911617905550565b6006546001600160a01b03163314610bae5760405162461bcd60e51b815260206004820181905260248201527f4f776e61626c653a2063616c6c6572206973206e6f7420746865206f776e657260448201526064016106f6565b60005b8151811015610c16576001600e6000848481518110610bd257610bd26128b0565b6020908102919091018101516001600160a01b03168252810191909152604001600020805460ff191691151591909117905580610c0e816128dc565b915050610bb1565b5050565b336000908152600e602052604090205460ff16610c9f5760405162461bcd60e51b815260206004820152603160248201527f526574726f417065436c75623a20596f75206172656e277420656c696769626c60448201527f6520666f722066726565206d696e74732100000000000000000000000000000060648201526084016106f6565b336000908152600d602052604090205460ff1615610d255760405162461bcd60e51b815260206004820152603260248201527f526574726f417065436c75623a20596f7520416c726561647920436c61696d6560448201527f6420596f75722046726565204d696e747321000000000000000000000000000060648201526084016106f6565b611388610d30610987565b610d3b9060036128f7565b1115610dae5760405162461bcd60e51b8152602060048201526024808201527f526574726f417065436c75623a2043616e6e6f74204d696e742046726565204d60448201527f696e74730000000000000000000000000000000000000000000000000000000060648201526084016106f6565b336000908152600d60209081526040808320805460ff19166001179055600c9091528120600390555b600381101561071257610df133610dec610987565b611d10565b610dff600780546001019055565b80610e09816128dc565b915050610dd7565b6000818152600260205260408120546001600160a01b03168061069a5760405162461bcd60e51b815260206004820152602960248201527f4552433732313a206f776e657220717565727920666f72206e6f6e657869737460448201527f656e7420746f6b656e000000000000000000000000000000000000000000000060648201526084016106f6565b60006001600160a01b038216610f1a5760405162461bcd60e51b815260206004820152602a60248201527f4552433732313a2062616c616e636520717565727920666f7220746865207a6560448201527f726f20616464726573730000000000000000000000000000000000000000000060648201526084016106f6565b506001600160a01b031660009081526003602052604090205490565b6006546001600160a01b03163314610f905760405162461bcd60e51b815260206004820181905260248201527f4f776e61626c653a2063616c6c6572206973206e6f7420746865206f776e657260448201526064016106f6565b610f9a6000611d2a565b565b6006546001600160a01b03163314610ff65760405162461bcd60e51b815260206004820181905260248201527f4f776e61626c653a2063616c6c6572206973206e6f7420746865206f776e657260448201526064016106f6565b60005b8151811015610c16576000600e600084848151811061101a5761101a6128b0565b6020908102919091018101516001600160a01b03168252810191909152604001600020805460ff191691151591909117905580611056816128dc565b915050610ff9565b60606001805461072c90612875565b6009805461107a90612875565b80601f01602080910402602001604051908101604052809291908181526020018280546110a690612875565b80156110f35780601f106110c8576101008083540402835291602001916110f3565b820191906000526020600020905b8154815290600101906020018083116110d657829003601f168201915b505050505081565b61138881611107610987565b61111191906128f7565b11156111855760405162461bcd60e51b815260206004820152602c60248201527f526574726f417065436c75623a2043616e6e6f74206d696e74206265796f6e6460448201527f206d617820737570706c7921000000000000000000000000000000000000000060648201526084016106f6565b80600a54611193919061290f565b3410156112085760405162461bcd60e51b815260206004820152602960248201527f526574726f417065436c75623a205061796d656e742069732062656c6f77207460448201527f686520507269636521000000000000000000000000000000000000000000000060648201526084016106f6565b600b546040516001600160a01b0361010090920491909116903480156108fc02916000818181858888f19350505050158015611248573d6000803e3d6000fd5b5060005b81811015610c1657336000908152600c6020526040812080549161126f836128dc565b919050555061128033610dec610987565b61128e600780546001019055565b80611298816128dc565b91505061124c565b6006546001600160a01b031633146112fa5760405162461bcd60e51b815260206004820181905260248201527f4f776e61626c653a2063616c6c6572206973206e6f7420746865206f776e657260448201526064016106f6565b8051610c169060089060208401906123e8565b610c16338383611d89565b611322338361196f565b6113945760405162461bcd60e51b815260206004820152603160248201527f4552433732313a207472616e736665722063616c6c6572206973206e6f74206f60448201527f776e6572206e6f7220617070726f76656400000000000000000000000000000060648201526084016106f6565b6113a084848484611e58565b50505050565b6000818152600260205260409020546060906001600160a01b03166114335760405162461bcd60e51b815260206004820152602f60248201527f4552433732314d657461646174613a2055524920717565727920666f72206e6f60448201527f6e6578697374656e7420746f6b656e000000000000000000000000000000000060648201526084016106f6565b600b5460ff166114cf576009805461144a90612875565b80601f016020809104026020016040519081016040528092919081815260200182805461147690612875565b80156114c35780601f10611498576101008083540402835291602001916114c3565b820191906000526020600020905b8154815290600101906020018083116114a657829003601f168201915b50505050509050919050565b6000600880546114de90612875565b9050116114fa576040518060200160405280600081525061069a565b600861150583611ee1565b60405160200161151692919061294a565b60405160208183030381529060405292915050565b6006546001600160a01b031633146115855760405162461bcd60e51b815260206004820181905260248201527f4f776e61626c653a2063616c6c6572206973206e6f7420746865206f776e657260448201526064016106f6565b600b805482151560ff1990911617905550565b6006546001600160a01b031633146115f25760405162461bcd60e51b815260206004820181905260248201527f4f776e61626c653a2063616c6c6572206973206e6f7420746865206f776e657260448201526064016106f6565b6001600160a01b03811661166e5760405162461bcd60e51b815260206004820152602660248201527f4f776e61626c653a206e6577206f776e657220697320746865207a65726f206160448201527f646472657373000000000000000000000000000000000000000000000000000060648201526084016106f6565b61071281611d2a565b6006546001600160a01b031633146116d15760405162461bcd60e51b815260206004820181905260248201527f4f776e61626c653a2063616c6c6572206973206e6f7420746865206f776e657260448201526064016106f6565b8051610c169060099060208401906123e8565b60006001600160e01b031982167f80ac58cd00000000000000000000000000000000000000000000000000000000148061174757506001600160e01b031982167f5b5e139f00000000000000000000000000000000000000000000000000000000145b8061069a57507f01ffc9a7000000000000000000000000000000000000000000000000000000006001600160e01b031983161461069a565b600654600160a01b900460ff16156117d95760405162461bcd60e51b815260206004820152601060248201527f5061757361626c653a207061757365640000000000000000000000000000000060448201526064016106f6565b600680547fffffffffffffffffffffff00ffffffffffffffffffffffffffffffffffffffff16600160a01b1790557f62e78cea01bee320cd4e420270b5ea74000d11b0c9f74754ebdbfc544b05a25861182f3390565b6040516001600160a01b03909116815260200160405180910390a1565b600654600160a01b900460ff166118a55760405162461bcd60e51b815260206004820152601460248201527f5061757361626c653a206e6f742070617573656400000000000000000000000060448201526064016106f6565b600680547fffffffffffffffffffffff00ffffffffffffffffffffffffffffffffffffffff1690557f5db9ee0a495bf2e6ff9c91a7834c1ba4fdd244a5e8aa4e537bd38aeae4b073aa3361182f565b6000818152600460205260409020805473ffffffffffffffffffffffffffffffffffffffff19166001600160a01b038416908117909155819061193682610e11565b6001600160a01b03167f8c5be1e5ebec7d5bd14f71427d1e84f3dd0314c0f7b2291e5b200ac8c7c3b92560405160405180910390a45050565b6000818152600260205260408120546001600160a01b03166119f95760405162461bcd60e51b815260206004820152602c60248201527f4552433732313a206f70657261746f7220717565727920666f72206e6f6e657860448201527f697374656e7420746f6b656e000000000000000000000000000000000000000060648201526084016106f6565b6000611a0483610e11565b9050806001600160a01b0316846001600160a01b03161480611a3f5750836001600160a01b0316611a34846107af565b6001600160a01b0316145b80611a6f57506001600160a01b0380821660009081526005602090815260408083209388168352929052205460ff165b949350505050565b826001600160a01b0316611a8a82610e11565b6001600160a01b031614611b065760405162461bcd60e51b815260206004820152602960248201527f4552433732313a207472616e73666572206f6620746f6b656e2074686174206960448201527f73206e6f74206f776e000000000000000000000000000000000000000000000060648201526084016106f6565b6001600160a01b038216611b815760405162461bcd60e51b8152602060048201526024808201527f4552433732313a207472616e7366657220746f20746865207a65726f2061646460448201527f726573730000000000000000000000000000000000000000000000000000000060648201526084016106f6565b611b8c838383612013565b611b976000826118f4565b6001600160a01b0383166000908152600360205260408120805460019290611bc09084906129f1565b90915550506001600160a01b0382166000908152600360205260408120805460019290611bee9084906128f7565b9091555050600081815260026020526040808220805473ffffffffffffffffffffffffffffffffffffffff19166001600160a01b0386811691821790925591518493918716917fddf252ad1be2c89b69c2b068fc378daa952ba7f163c4a11628f55a4df523b3ef91a4505050565b6000611c6782610e11565b9050611c7581600084612013565b611c806000836118f4565b6001600160a01b0381166000908152600360205260408120805460019290611ca99084906129f1565b9091555050600082815260026020526040808220805473ffffffffffffffffffffffffffffffffffffffff19169055518391906001600160a01b038416907fddf252ad1be2c89b69c2b068fc378daa952ba7f163c4a11628f55a4df523b3ef908390a45050565b610c1682826040518060200160405280600081525061201e565b600680546001600160a01b0383811673ffffffffffffffffffffffffffffffffffffffff19831681179093556040519116919082907f8be0079c531659141344cd1fd0a4f28419497f9722a3daafe3b4186f6b6457e090600090a35050565b816001600160a01b0316836001600160a01b03161415611deb5760405162461bcd60e51b815260206004820152601960248201527f4552433732313a20617070726f766520746f2063616c6c65720000000000000060448201526064016106f6565b6001600160a01b03838116600081815260056020908152604080832094871680845294825291829020805460ff191686151590811790915591519182527f17307eab39ab6107e8899845ad3d59bd9653f200f220920489ca2b5937696c31910160405180910390a3505050565b611e63848484611a77565b611e6f848484846120a7565b6113a05760405162461bcd60e51b815260206004820152603260248201527f4552433732313a207472616e7366657220746f206e6f6e20455243373231526560448201527f63656976657220696d706c656d656e746572000000000000000000000000000060648201526084016106f6565b606081611f2157505060408051808201909152600181527f3000000000000000000000000000000000000000000000000000000000000000602082015290565b8160005b8115611f4b5780611f35816128dc565b9150611f449050600a83612a1e565b9150611f25565b60008167ffffffffffffffff811115611f6657611f66612607565b6040519080825280601f01601f191660200182016040528015611f90576020820181803683370190505b5090505b8415611a6f57611fa56001836129f1565b9150611fb2600a86612a32565b611fbd9060306128f7565b60f81b818381518110611fd257611fd26128b0565b60200101907effffffffffffffffffffffffffffffffffffffffffffffffffffffffffffff1916908160001a90535061200c600a86612a1e565b9450611f94565b6109828383836121fb565b612028838361228d565b61203560008484846120a7565b6109825760405162461bcd60e51b815260206004820152603260248201527f4552433732313a207472616e7366657220746f206e6f6e20455243373231526560448201527f63656976657220696d706c656d656e746572000000000000000000000000000060648201526084016106f6565b60006001600160a01b0384163b156121f057604051630a85bd0160e11b81526001600160a01b0385169063150b7a02906120eb903390899088908890600401612a46565b6020604051808303816000875af1925050508015612126575060408051601f3d908101601f1916820190925261212391810190612a82565b60015b6121d6573d808015612154576040519150601f19603f3d011682016040523d82523d6000602084013e612159565b606091505b5080516121ce5760405162461bcd60e51b815260206004820152603260248201527f4552433732313a207472616e7366657220746f206e6f6e20455243373231526560448201527f63656976657220696d706c656d656e746572000000000000000000000000000060648201526084016106f6565b805181602001fd5b6001600160e01b031916630a85bd0160e11b149050611a6f565b506001949350505050565b6006546001600160a01b0316331461098257600654600160a01b900460ff16156109825760405162461bcd60e51b815260206004820152602b60248201527f4552433732315061757361626c653a20746f6b656e207472616e73666572207760448201527f68696c652070617573656400000000000000000000000000000000000000000060648201526084016106f6565b6001600160a01b0382166122e35760405162461bcd60e51b815260206004820181905260248201527f4552433732313a206d696e7420746f20746865207a65726f206164647265737360448201526064016106f6565b6000818152600260205260409020546001600160a01b0316156123485760405162461bcd60e51b815260206004820152601c60248201527f4552433732313a20746f6b656e20616c7265616479206d696e7465640000000060448201526064016106f6565b61235460008383612013565b6001600160a01b038216600090815260036020526040812080546001929061237d9084906128f7565b9091555050600081815260026020526040808220805473ffffffffffffffffffffffffffffffffffffffff19166001600160a01b03861690811790915590518392907fddf252ad1be2c89b69c2b068fc378daa952ba7f163c4a11628f55a4df523b3ef908290a45050565b8280546123f490612875565b90600052602060002090601f016020900481019282612416576000855561245c565b82601f1061242f57805160ff191683800117855561245c565b8280016001018555821561245c579182015b8281111561245c578251825591602001919060010190612441565b5061246892915061246c565b5090565b5b80821115612468576000815560010161246d565b6001600160e01b03198116811461071257600080fd5b6000602082840312156124a957600080fd5b81356124b481612481565b9392505050565b803580151581146124cb57600080fd5b919050565b6000602082840312156124e257600080fd5b6124b4826124bb565b60005b838110156125065781810151838201526020016124ee565b838111156113a05750506000910152565b6000815180845261252f8160208601602086016124eb565b601f01601f19169290920160200192915050565b6020815260006124b46020830184612517565b60006020828403121561256857600080fd5b5035919050565b80356001600160a01b03811681146124cb57600080fd5b6000806040838503121561259957600080fd5b6125a28361256f565b946020939093013593505050565b6000806000606084860312156125c557600080fd5b6125ce8461256f565b92506125dc6020850161256f565b9150604084013590509250925092565b6000602082840312156125fe57600080fd5b6124b48261256f565b634e487b7160e01b600052604160045260246000fd5b604051601f8201601f1916810167ffffffffffffffff8111828210171561264657612646612607565b604052919050565b6000602080838503121561266157600080fd5b823567ffffffffffffffff8082111561267957600080fd5b818501915085601f83011261268d57600080fd5b81358181111561269f5761269f612607565b8060051b91506126b084830161261d565b81815291830184019184810190888411156126ca57600080fd5b938501935b838510156126ef576126e08561256f565b825293850193908501906126cf565b98975050505050505050565b600067ffffffffffffffff83111561271557612715612607565b612728601f8401601f191660200161261d565b905082815283838301111561273c57600080fd5b828260208301376000602084830101529392505050565b60006020828403121561276557600080fd5b813567ffffffffffffffff81111561277c57600080fd5b8201601f8101841361278d57600080fd5b611a6f848235602084016126fb565b600080604083850312156127af57600080fd5b6127b88361256f565b91506127c6602084016124bb565b90509250929050565b600080600080608085870312156127e557600080fd5b6127ee8561256f565b93506127fc6020860161256f565b925060408501359150606085013567ffffffffffffffff81111561281f57600080fd5b8501601f8101871361283057600080fd5b61283f878235602084016126fb565b91505092959194509250565b6000806040838503121561285e57600080fd5b6128678361256f565b91506127c66020840161256f565b600181811c9082168061288957607f821691505b602082108114156128aa57634e487b7160e01b600052602260045260246000fd5b50919050565b634e487b7160e01b600052603260045260246000fd5b634e487b7160e01b600052601160045260246000fd5b60006000198214156128f0576128f06128c6565b5060010190565b6000821982111561290a5761290a6128c6565b500190565b6000816000190483118215151615612929576129296128c6565b500290565b600081516129408185602086016124eb565b9290920192915050565b600080845481600182811c91508083168061296657607f831692505b602080841082141561298657634e487b7160e01b86526022600452602486fd5b81801561299a57600181146129ab576129d8565b60ff198616895284890196506129d8565b60008b81526020902060005b868110156129d05781548b8201529085019083016129b7565b505084890196505b5050505050506129e8818561292e565b95945050505050565b600082821015612a0357612a036128c6565b500390565b634e487b7160e01b600052601260045260246000fd5b600082612a2d57612a2d612a08565b500490565b600082612a4157612a41612a08565b500690565b60006001600160a01b03808716835280861660208401525083604083015260806060830152612a786080830184612517565b9695505050505050565b600060208284031215612a9457600080fd5b81516124b48161248156fea2646970667358221220153c4d9264761031bf91ca5cb3c628591c09984ac69e73d1c2434fcb1562ce7064736f6c634300080b00334f776e61626c653a2063616c6c6572206973206e6f7420746865206f776e6572",
  "immutableReferences": {},
  "source": "// SPDX-License-Identifier: MIT\r\npragma solidity ^0.8.0;\r\n\r\nimport \"@openzeppelin/contracts/token/ERC721/ERC721.sol\";\r\nimport \"@openzeppelin/contracts/token/ERC721/extensions/ERC721Burnable.sol\";\r\nimport \"@openzeppelin/contracts/access/Ownable.sol\";\r\nimport \"@openzeppelin/contracts/utils/math/SafeMath.sol\";\r\nimport \"@openzeppelin/contracts/utils/Counters.sol\";\r\nimport \"./ERC721Pausable.sol\";\r\n\r\ncontract RetroApeClub is  Ownable, ERC721Burnable, ERC721Pausable{\r\n    //using SafeMath for uint256;\r\n    using Counters for Counters.Counter;\r\n    using Strings for uint256;\r\n\r\n    Counters.Counter private _tokenCounter;\r\n\r\n    string private _baseTokenUri;\r\n    string public placeholder;\r\n\r\n    uint256 public RetroApeClubPrice = 5 * 10 ** 16;\r\n\r\n    bool public isRevealed;\r\n    \r\n    address financeAddress = 0x77d2A16DCe85372a37719754BFfEbDd4266a5e2d; // address testnet 0x1655147A35e6Cafc1d6E587414286e6287698B7f\r\n\r\n    mapping(address => uint256) public walletMintCount;\r\n    mapping(address => bool) public isFreeMintClaimed;\r\n    mapping(address => bool)public freeMintList;\r\n\r\n    event mintRetroApeClub(uint256 indexed id, address minter);\r\n\r\n    constructor(string memory baseUri, string memory _placeholder) ERC721(\"RetroApeClub\", \"RAC\"){\r\n        setBaseUri(baseUri);\r\n        placeholder = _placeholder;\r\n        pause(true);\r\n    }\r\n\r\n    function totalSupply() public view returns(uint){\r\n        return _tokenCounter.current();\r\n    }\r\n    \r\n    function _baseURI() internal view virtual override returns (string memory) {\r\n        return _baseTokenUri;\r\n    }\r\n\r\n    function tokenURI(uint256 tokenId) public view virtual override returns (string memory) {\r\n        require(_exists(tokenId), \"ERC721Metadata: URI query for nonexistent token\");\r\n\r\n        if(!isRevealed){\r\n            return placeholder;\r\n        }\r\n        //string memory baseURI = _baseURI();\r\n        return bytes(_baseTokenUri).length > 0 ? string(abi.encodePacked(_baseTokenUri, tokenId.toString())) : \"\";\r\n    }\r\n\r\n    function setFreeMintList(address[] memory _freeMintList) public onlyOwner{\r\n        for(uint256 index = 0; index < _freeMintList.length; index++){\r\n            freeMintList[_freeMintList[index]] = true;\r\n        }\r\n        return;\r\n    }\r\n\r\n    function unsetFreeMintList(address[] memory _freeMintList) public onlyOwner{\r\n        for(uint256 index = 0; index < _freeMintList.length; index++){\r\n            freeMintList[_freeMintList[index]] = false;\r\n        }\r\n        return;\r\n    }\r\n\r\n    function setFinanceAddress(address _financeAddress)public onlyOwner{\r\n        financeAddress = _financeAddress;\r\n        return;\r\n    }\r\n\r\n    function setPlaceholder(string memory _placeholder)public onlyOwner{\r\n        placeholder = _placeholder;\r\n        return;\r\n    }\r\n\r\n    function setRevealed(bool _isRevealed) public onlyOwner{\r\n        isRevealed = _isRevealed;\r\n        return;\r\n    }\r\n\r\n    function mint(uint256 _quantity) public payable{\r\n        require((totalSupply() + _quantity) <= 5000 , \"RetroApeClub: Cannot mint beyond max supply!\");\r\n        require(msg.value >= (RetroApeClubPrice * _quantity), \"RetroApeClub: Payment is below the Price!\");\r\n\r\n        payable(financeAddress).transfer(msg.value);\r\n        //_mintARetroApeClub(msg.sender, _tokenCounter.current());\r\n        for(uint256 pointer = 0; pointer < _quantity; pointer++){\r\n            walletMintCount[msg.sender] ++;\r\n            _safeMint(msg.sender, totalSupply());\r\n            _tokenCounter.increment();\r\n        }\r\n        return;\r\n    }\r\n\r\n    function freeMint() public payable{\r\n        require(freeMintList[msg.sender], \"RetroApeClub: You aren't eligible for free mints!\");\r\n        require(!isFreeMintClaimed[msg.sender], \"RetroApeClub: You Already Claimed Your Free Mints!\");\r\n        require((totalSupply() + 3) <= 5000, \"RetroApeClub: Cannot Mint Free Mints\");\r\n        \r\n        isFreeMintClaimed[msg.sender] = true;\r\n        walletMintCount[msg.sender] = 3;\r\n\r\n        for(uint256 index; index < 3; index++){\r\n            _safeMint(msg.sender, totalSupply());\r\n            _tokenCounter.increment();\r\n        }\r\n\r\n        return;\r\n    }\r\n\r\n    function setBaseUri(string memory baseUri) public onlyOwner{\r\n        _baseTokenUri = baseUri;\r\n    }\r\n\r\n    function pause(bool isPaused)public onlyOwner{\r\n        if(isPaused == true){\r\n            _pause();\r\n            return;\r\n        }\r\n        \r\n        _unpause();\r\n    }\r\n\r\n    function _beforeTokenTransfer(\r\n        address from,\r\n        address to,\r\n        uint256 tokenId\r\n    ) internal virtual override(ERC721, ERC721Pausable) {\r\n        super._beforeTokenTransfer(from, to, tokenId);\r\n    }\r\n\r\n     function supportsInterface(bytes4 interfaceId) public view virtual override(ERC721) returns (bool) {\r\n        return super.supportsInterface(interfaceId);\r\n    }\r\n}",
  "sourcePath": "C:\\REZAREKT-D\\Documents\\Projects\\Work\\Clients\\Retro Ape Club\\ERC721\\contracts\\RetroApeClub.sol",
  "compiler": {
    "name": "solc",
    "version": "0.8.11+commit.d7f03943.Emscripten.clang"
  },
  "schemaVersion": "3.4.3",
  "updatedAt": "2022-01-24T05:46:40.833Z",
  "networkType": "ethereum",
  "devdoc": {
    "kind": "dev",
    "methods": {
      "approve(address,uint256)": {
        "details": "See {IERC721-approve}."
      },
      "balanceOf(address)": {
        "details": "See {IERC721-balanceOf}."
      },
      "burn(uint256)": {
        "details": "Burns `tokenId`. See {ERC721-_burn}. Requirements: - The caller must own `tokenId` or be an approved operator."
      },
      "getApproved(uint256)": {
        "details": "See {IERC721-getApproved}."
      },
      "isApprovedForAll(address,address)": {
        "details": "See {IERC721-isApprovedForAll}."
      },
      "name()": {
        "details": "See {IERC721Metadata-name}."
      },
      "owner()": {
        "details": "Returns the address of the current owner."
      },
      "ownerOf(uint256)": {
        "details": "See {IERC721-ownerOf}."
      },
      "paused()": {
        "details": "Returns true if the contract is paused, and false otherwise."
      },
      "renounceOwnership()": {
        "details": "Leaves the contract without owner. It will not be possible to call `onlyOwner` functions anymore. Can only be called by the current owner. NOTE: Renouncing ownership will leave the contract without an owner, thereby removing any functionality that is only available to the owner."
      },
      "safeTransferFrom(address,address,uint256)": {
        "details": "See {IERC721-safeTransferFrom}."
      },
      "safeTransferFrom(address,address,uint256,bytes)": {
        "details": "See {IERC721-safeTransferFrom}."
      },
      "setApprovalForAll(address,bool)": {
        "details": "See {IERC721-setApprovalForAll}."
      },
      "supportsInterface(bytes4)": {
        "details": "See {IERC165-supportsInterface}."
      },
      "symbol()": {
        "details": "See {IERC721Metadata-symbol}."
      },
      "tokenURI(uint256)": {
        "details": "See {IERC721Metadata-tokenURI}."
      },
      "transferFrom(address,address,uint256)": {
        "details": "See {IERC721-transferFrom}."
      },
      "transferOwnership(address)": {
        "details": "Transfers ownership of the contract to a new account (`newOwner`). Can only be called by the current owner."
      }
    },
    "version": 1
  },
  "userdoc": {
    "kind": "user",
    "methods": {},
    "version": 1
  }
}