{
  "contractName": "RetroApeClub",
  "abi": [
    {
      "inputs": [
        {
          "internalType": "string",
          "name": "baseUri",
          "type": "string"
        },
        {
          "internalType": "string",
          "name": "_signer",
          "type": "string"
        }
      ],
      "stateMutability": "nonpayable",
      "type": "constructor"
    },
    {
      "anonymous": false,
      "inputs": [
        {
          "indexed": true,
          "internalType": "address",
          "name": "owner",
          "type": "address"
        },
        {
          "indexed": true,
          "internalType": "address",
          "name": "approved",
          "type": "address"
        },
        {
          "indexed": true,
          "internalType": "uint256",
          "name": "tokenId",
          "type": "uint256"
        }
      ],
      "name": "Approval",
      "type": "event"
    },
    {
      "anonymous": false,
      "inputs": [
        {
          "indexed": true,
          "internalType": "address",
          "name": "owner",
          "type": "address"
        },
        {
          "indexed": true,
          "internalType": "address",
          "name": "operator",
          "type": "address"
        },
        {
          "indexed": false,
          "internalType": "bool",
          "name": "approved",
          "type": "bool"
        }
      ],
      "name": "ApprovalForAll",
      "type": "event"
    },
    {
      "anonymous": false,
      "inputs": [
        {
          "indexed": true,
          "internalType": "address",
          "name": "previousOwner",
          "type": "address"
        },
        {
          "indexed": true,
          "internalType": "address",
          "name": "newOwner",
          "type": "address"
        }
      ],
      "name": "OwnershipTransferred",
      "type": "event"
    },
    {
      "anonymous": false,
      "inputs": [
        {
          "indexed": false,
          "internalType": "address",
          "name": "account",
          "type": "address"
        }
      ],
      "name": "Paused",
      "type": "event"
    },
    {
      "anonymous": false,
      "inputs": [
        {
          "indexed": true,
          "internalType": "address",
          "name": "from",
          "type": "address"
        },
        {
          "indexed": true,
          "internalType": "address",
          "name": "to",
          "type": "address"
        },
        {
          "indexed": true,
          "internalType": "uint256",
          "name": "tokenId",
          "type": "uint256"
        }
      ],
      "name": "Transfer",
      "type": "event"
    },
    {
      "anonymous": false,
      "inputs": [
        {
          "indexed": false,
          "internalType": "address",
          "name": "account",
          "type": "address"
        }
      ],
      "name": "Unpaused",
      "type": "event"
    },
    {
      "anonymous": false,
      "inputs": [
        {
          "indexed": true,
          "internalType": "uint256",
          "name": "id",
          "type": "uint256"
        },
        {
          "indexed": false,
          "internalType": "address",
          "name": "minter",
          "type": "address"
        }
      ],
      "name": "mintRetroApeClub",
      "type": "event"
    },
    {
      "inputs": [],
      "name": "RetroApeClubPrice",
      "outputs": [
        {
          "internalType": "uint256",
          "name": "",
          "type": "uint256"
        }
      ],
      "stateMutability": "view",
      "type": "function",
      "constant": true
    },
    {
      "inputs": [],
      "name": "RetroApeClubWhitelistPrice",
      "outputs": [
        {
          "internalType": "uint256",
          "name": "",
          "type": "uint256"
        }
      ],
      "stateMutability": "view",
      "type": "function",
      "constant": true
    },
    {
      "inputs": [
        {
          "internalType": "address",
          "name": "to",
          "type": "address"
        },
        {
          "internalType": "uint256",
          "name": "tokenId",
          "type": "uint256"
        }
      ],
      "name": "approve",
      "outputs": [],
      "stateMutability": "nonpayable",
      "type": "function"
    },
    {
      "inputs": [
        {
          "internalType": "address",
          "name": "owner",
          "type": "address"
        }
      ],
      "name": "balanceOf",
      "outputs": [
        {
          "internalType": "uint256",
          "name": "",
          "type": "uint256"
        }
      ],
      "stateMutability": "view",
      "type": "function",
      "constant": true
    },
    {
      "inputs": [
        {
          "internalType": "uint256",
          "name": "tokenId",
          "type": "uint256"
        }
      ],
      "name": "burn",
      "outputs": [],
      "stateMutability": "nonpayable",
      "type": "function"
    },
    {
      "inputs": [
        {
          "internalType": "uint256",
          "name": "tokenId",
          "type": "uint256"
        }
      ],
      "name": "getApproved",
      "outputs": [
        {
          "internalType": "address",
          "name": "",
          "type": "address"
        }
      ],
      "stateMutability": "view",
      "type": "function",
      "constant": true
    },
    {
      "inputs": [
        {
          "internalType": "address",
          "name": "owner",
          "type": "address"
        },
        {
          "internalType": "address",
          "name": "operator",
          "type": "address"
        }
      ],
      "name": "isApprovedForAll",
      "outputs": [
        {
          "internalType": "bool",
          "name": "",
          "type": "bool"
        }
      ],
      "stateMutability": "view",
      "type": "function",
      "constant": true
    },
    {
      "inputs": [],
      "name": "isReserveMinted",
      "outputs": [
        {
          "internalType": "bool",
          "name": "",
          "type": "bool"
        }
      ],
      "stateMutability": "view",
      "type": "function",
      "constant": true
    },
    {
      "inputs": [],
      "name": "isRevealed",
      "outputs": [
        {
          "internalType": "bool",
          "name": "",
          "type": "bool"
        }
      ],
      "stateMutability": "view",
      "type": "function",
      "constant": true
    },
    {
      "inputs": [],
      "name": "maxRetroApeClub",
      "outputs": [
        {
          "internalType": "uint256",
          "name": "",
          "type": "uint256"
        }
      ],
      "stateMutability": "view",
      "type": "function",
      "constant": true
    },
    {
      "inputs": [],
      "name": "name",
      "outputs": [
        {
          "internalType": "string",
          "name": "",
          "type": "string"
        }
      ],
      "stateMutability": "view",
      "type": "function",
      "constant": true
    },
    {
      "inputs": [],
      "name": "owner",
      "outputs": [
        {
          "internalType": "address",
          "name": "",
          "type": "address"
        }
      ],
      "stateMutability": "view",
      "type": "function",
      "constant": true
    },
    {
      "inputs": [
        {
          "internalType": "uint256",
          "name": "tokenId",
          "type": "uint256"
        }
      ],
      "name": "ownerOf",
      "outputs": [
        {
          "internalType": "address",
          "name": "",
          "type": "address"
        }
      ],
      "stateMutability": "view",
      "type": "function",
      "constant": true
    },
    {
      "inputs": [],
      "name": "paused",
      "outputs": [
        {
          "internalType": "bool",
          "name": "",
          "type": "bool"
        }
      ],
      "stateMutability": "view",
      "type": "function",
      "constant": true
    },
    {
      "inputs": [],
      "name": "placeholder",
      "outputs": [
        {
          "internalType": "string",
          "name": "",
          "type": "string"
        }
      ],
      "stateMutability": "view",
      "type": "function",
      "constant": true
    },
    {
      "inputs": [],
      "name": "presaleStatus",
      "outputs": [
        {
          "internalType": "bool",
          "name": "",
          "type": "bool"
        }
      ],
      "stateMutability": "view",
      "type": "function",
      "constant": true
    },
    {
      "inputs": [],
      "name": "renounceOwnership",
      "outputs": [],
      "stateMutability": "nonpayable",
      "type": "function"
    },
    {
      "inputs": [
        {
          "internalType": "address",
          "name": "from",
          "type": "address"
        },
        {
          "internalType": "address",
          "name": "to",
          "type": "address"
        },
        {
          "internalType": "uint256",
          "name": "tokenId",
          "type": "uint256"
        }
      ],
      "name": "safeTransferFrom",
      "outputs": [],
      "stateMutability": "nonpayable",
      "type": "function"
    },
    {
      "inputs": [
        {
          "internalType": "address",
          "name": "from",
          "type": "address"
        },
        {
          "internalType": "address",
          "name": "to",
          "type": "address"
        },
        {
          "internalType": "uint256",
          "name": "tokenId",
          "type": "uint256"
        },
        {
          "internalType": "bytes",
          "name": "_data",
          "type": "bytes"
        }
      ],
      "name": "safeTransferFrom",
      "outputs": [],
      "stateMutability": "nonpayable",
      "type": "function"
    },
    {
      "inputs": [
        {
          "internalType": "address",
          "name": "operator",
          "type": "address"
        },
        {
          "internalType": "bool",
          "name": "approved",
          "type": "bool"
        }
      ],
      "name": "setApprovalForAll",
      "outputs": [],
      "stateMutability": "nonpayable",
      "type": "function"
    },
    {
      "inputs": [],
      "name": "symbol",
      "outputs": [
        {
          "internalType": "string",
          "name": "",
          "type": "string"
        }
      ],
      "stateMutability": "view",
      "type": "function",
      "constant": true
    },
    {
      "inputs": [
        {
          "internalType": "address",
          "name": "from",
          "type": "address"
        },
        {
          "internalType": "address",
          "name": "to",
          "type": "address"
        },
        {
          "internalType": "uint256",
          "name": "tokenId",
          "type": "uint256"
        }
      ],
      "name": "transferFrom",
      "outputs": [],
      "stateMutability": "nonpayable",
      "type": "function"
    },
    {
      "inputs": [
        {
          "internalType": "address",
          "name": "newOwner",
          "type": "address"
        }
      ],
      "name": "transferOwnership",
      "outputs": [],
      "stateMutability": "nonpayable",
      "type": "function"
    },
    {
      "inputs": [],
      "name": "whitelistSaleEnd",
      "outputs": [
        {
          "internalType": "uint256",
          "name": "",
          "type": "uint256"
        }
      ],
      "stateMutability": "view",
      "type": "function",
      "constant": true
    },
    {
      "inputs": [],
      "name": "totalSupply",
      "outputs": [
        {
          "internalType": "uint256",
          "name": "",
          "type": "uint256"
        }
      ],
      "stateMutability": "view",
      "type": "function",
      "constant": true
    },
    {
      "inputs": [
        {
          "internalType": "uint256",
          "name": "tokenId",
          "type": "uint256"
        }
      ],
      "name": "tokenURI",
      "outputs": [
        {
          "internalType": "string",
          "name": "",
          "type": "string"
        }
      ],
      "stateMutability": "view",
      "type": "function",
      "constant": true
    },
    {
      "inputs": [
        {
          "internalType": "string",
          "name": "_signer",
          "type": "string"
        }
      ],
      "name": "setSigner",
      "outputs": [],
      "stateMutability": "nonpayable",
      "type": "function"
    },
    {
      "inputs": [
        {
          "internalType": "uint256",
          "name": "_whitelistSaleEnd",
          "type": "uint256"
        }
      ],
      "name": "setWhitelistSaleEnd",
      "outputs": [],
      "stateMutability": "nonpayable",
      "type": "function"
    },
    {
      "inputs": [
        {
          "internalType": "address",
          "name": "_financeAddress",
          "type": "address"
        }
      ],
      "name": "setFinanceAddress",
      "outputs": [],
      "stateMutability": "nonpayable",
      "type": "function"
    },
    {
      "inputs": [
        {
          "internalType": "string",
          "name": "_signer",
          "type": "string"
        },
        {
          "internalType": "uint256",
          "name": "_quantity",
          "type": "uint256"
        }
      ],
      "name": "mint",
      "outputs": [],
      "stateMutability": "payable",
      "type": "function",
      "payable": true
    },
    {
      "inputs": [
        {
          "internalType": "string",
          "name": "baseUri",
          "type": "string"
        }
      ],
      "name": "setBaseUri",
      "outputs": [],
      "stateMutability": "nonpayable",
      "type": "function"
    },
    {
      "inputs": [
        {
          "internalType": "bool",
          "name": "isPaused",
          "type": "bool"
        }
      ],
      "name": "pause",
      "outputs": [],
      "stateMutability": "nonpayable",
      "type": "function"
    },
    {
      "inputs": [
        {
          "internalType": "bytes4",
          "name": "interfaceId",
          "type": "bytes4"
        }
      ],
      "name": "supportsInterface",
      "outputs": [
        {
          "internalType": "bool",
          "name": "",
          "type": "bool"
        }
      ],
      "stateMutability": "view",
      "type": "function",
      "constant": true
    }
  ],
  "bytecode": "0x60806040526103e8600b55670214e8348c4f0000600c5567016345785d8a0000600d55600f80546001600160b81b031916761655147a35e6cafc1d6e587414286e6287698b7f0000001790553480156200005857600080fd5b5060405162002a2338038062002a238339810160408190526200007b9162000524565b604080518082018252600c81526b2932ba3937a0b832a1b63ab160a11b60208083019182528351808501909452600384526252414360e81b908401528151919291620000ca91600091620003b1565b508051620000e0906001906020840190620003b1565b505050620000fd620000f76200013f60201b60201c565b62000143565b6006805460ff60a01b19169055620001158262000195565b620001216001620001fd565b805162000136906009906020840190620003b1565b505050620005cb565b3390565b600680546001600160a01b038381166001600160a01b0319831681179093556040519116919082907f8be0079c531659141344cd1fd0a4f28419497f9722a3daafe3b4186f6b6457e090600090a35050565b6006546001600160a01b03163314620001e45760405162461bcd60e51b8152602060048201819052602482015260008051602062002a0383398151915260448201526064015b60405180910390fd5b8051620001f9906008906020840190620003b1565b5050565b6006546001600160a01b03163314620002485760405162461bcd60e51b8152602060048201819052602482015260008051602062002a038339815191526044820152606401620001db565b6001811515141562000261576200025e6200026b565b50565b6200025e6200031a565b6200027f600654600160a01b900460ff1690565b15620002c15760405162461bcd60e51b815260206004820152601060248201526f14185d5cd8589b194e881c185d5cd95960821b6044820152606401620001db565b6006805460ff60a01b1916600160a01b1790557f62e78cea01bee320cd4e420270b5ea74000d11b0c9f74754ebdbfc544b05a258620002fd3390565b6040516001600160a01b03909116815260200160405180910390a1565b6200032e600654600160a01b900460ff1690565b6200037c5760405162461bcd60e51b815260206004820152601460248201527f5061757361626c653a206e6f74207061757365640000000000000000000000006044820152606401620001db565b6006805460ff60a01b191690557f5db9ee0a495bf2e6ff9c91a7834c1ba4fdd244a5e8aa4e537bd38aeae4b073aa33620002fd565b828054620003bf906200058e565b90600052602060002090601f016020900481019282620003e357600085556200042e565b82601f10620003fe57805160ff19168380011785556200042e565b828001600101855582156200042e579182015b828111156200042e57825182559160200191906001019062000411565b506200043c92915062000440565b5090565b5b808211156200043c576000815560010162000441565b634e487b7160e01b600052604160045260246000fd5b600082601f8301126200047f57600080fd5b81516001600160401b03808211156200049c576200049c62000457565b604051601f8301601f19908116603f01168101908282118183101715620004c757620004c762000457565b81604052838152602092508683858801011115620004e457600080fd5b600091505b83821015620005085785820183015181830184015290820190620004e9565b838211156200051a5760008385830101525b9695505050505050565b600080604083850312156200053857600080fd5b82516001600160401b03808211156200055057600080fd5b6200055e868387016200046d565b935060208501519150808211156200057557600080fd5b5062000584858286016200046d565b9150509250929050565b600181811c90821680620005a357607f821691505b60208210811415620005c557634e487b7160e01b600052602260045260246000fd5b50919050565b61242880620005db6000396000f3fe6080604052600436106101ee5760003560e01c806370a082311161010d578063acfb2355116100a0578063d1dbdba41161006f578063d1dbdba414610551578063e985e9c514610571578063eaaddad2146105ba578063ec0e7fb6146105d0578063f2fde38b146105f057600080fd5b8063acfb2355146104e1578063b88d4fde146104fb578063c87b56dd1461051b578063cf5b2b4b1461053b57600080fd5b806395d89b41116100dc57806395d89b41146104775780639e75143c1461048c578063a0bcfc7f146104a1578063a22cb465146104c157600080fd5b806370a082311461040e578063715018a61461042e57806373b527be146104435780638da5cb5b1461045957600080fd5b806342842e0e1161018557806354214f691161015457806354214f69146103995780635c975abb146103b957806362eb30b9146103d85780636352211e146103ee57600080fd5b806342842e0e1461031a57806342966c681461033a57806347b3de551461035a5780634e5df7501461037957600080fd5b8063081812fc116101c1578063081812fc1461027f578063095ea7b3146102b757806318160ddd146102d757806323b872dd146102fa57600080fd5b806301ffc9a7146101f357806302329a2914610228578063056b01ce1461024a57806306fdde031461025d575b600080fd5b3480156101ff57600080fd5b5061021361020e366004611d46565b610610565b60405190151581526020015b60405180910390f35b34801561023457600080fd5b50610248610243366004611d7f565b610621565b005b610248610258366004611e46565b61068c565b34801561026957600080fd5b506102726108f2565b60405161021f9190611ee3565b34801561028b57600080fd5b5061029f61029a366004611ef6565b610984565b6040516001600160a01b03909116815260200161021f565b3480156102c357600080fd5b506102486102d2366004611f26565b610a19565b3480156102e357600080fd5b506102ec610b2a565b60405190815260200161021f565b34801561030657600080fd5b50610248610315366004611f50565b610b3a565b34801561032657600080fd5b50610248610335366004611f50565b610b6c565b34801561034657600080fd5b50610248610355366004611ef6565b610b87565b34801561036657600080fd5b50600f5461021390610100900460ff1681565b34801561038557600080fd5b50610248610394366004611f8c565b610bfe565b3480156103a557600080fd5b50600f546102139062010000900460ff1681565b3480156103c557600080fd5b50600654600160a01b900460ff16610213565b3480156103e457600080fd5b506102ec600c5481565b3480156103fa57600080fd5b5061029f610409366004611ef6565b610c7c565b34801561041a57600080fd5b506102ec610429366004611f8c565b610cf3565b34801561043a57600080fd5b50610248610d7a565b34801561044f57600080fd5b506102ec600b5481565b34801561046557600080fd5b506006546001600160a01b031661029f565b34801561048357600080fd5b50610272610dce565b34801561049857600080fd5b50610272610ddd565b3480156104ad57600080fd5b506102486104bc366004611fa7565b610e6b565b3480156104cd57600080fd5b506102486104dc366004611fdc565b610eca565b3480156104ed57600080fd5b50600f546102139060ff1681565b34801561050757600080fd5b5061024861051636600461200f565b610ed5565b34801561052757600080fd5b50610272610536366004611ef6565b610f0d565b34801561054757600080fd5b506102ec600d5481565b34801561055d57600080fd5b5061024861056c366004611ef6565b61108a565b34801561057d57600080fd5b5061021361058c36600461208b565b6001600160a01b03918216600090815260056020908152604080832093909416825291909152205460ff1690565b3480156105c657600080fd5b506102ec600e5481565b3480156105dc57600080fd5b506102486105eb366004611fa7565b6110d7565b3480156105fc57600080fd5b5061024861060b366004611f8c565b611132565b600061061b826111e8565b92915050565b6006546001600160a01b0316331461066e5760405162461bcd60e51b815260206004820181905260248201526000805160206123d383398151915260448201526064015b60405180910390fd5b6001811515141561068457610681611238565b50565b6106816112dd565b600960405161069b9190612189565b604051809103902082805190602001201461070f5760405162461bcd60e51b815260206004820152602e60248201527f526574726f417065436c75623a2043616e6e6f74204d696e742044697265637460448201526d1b1e481d1bc810dbdb9d1c9858dd60921b6064820152608401610665565b600a8161071a610b2a565b61072491906121ab565b11156107875760405162461bcd60e51b815260206004820152602c60248201527f526574726f417065436c75623a2043616e6e6f74206d696e74206265796f6e6460448201526b206d617820737570706c792160a01b6064820152608401610665565b600e5442116108375780600d5461079e91906121c3565b3410156107bd5760405162461bcd60e51b8152600401610665906121e2565b6005816107c8610b2a565b6107d291906121ab565b11156108325760405162461bcd60e51b815260206004820152602960248201527f526574726f417065436c75623a2057686974656c6973742073616c6520697320604482015268736f6c64206f75742160b81b6064820152608401610665565b61086e565b600e5442111561086e5780600c5461084f91906121c3565b34101561086e5760405162461bcd60e51b8152600401610665906121e2565b600f546040516001600160a01b03630100000090920491909116903480156108fc02916000818181858888f193505050501580156108b0573d6000803e3d6000fd5b5060005b818110156108ed576108cd336108c8610b2a565b61136a565b6108db600780546001019055565b806108e58161222b565b9150506108b4565b505050565b606060008054610901906120b5565b80601f016020809104026020016040519081016040528092919081815260200182805461092d906120b5565b801561097a5780601f1061094f5761010080835404028352916020019161097a565b820191906000526020600020905b81548152906001019060200180831161095d57829003601f168201915b5050505050905090565b6000818152600260205260408120546001600160a01b03166109fd5760405162461bcd60e51b815260206004820152602c60248201527f4552433732313a20617070726f76656420717565727920666f72206e6f6e657860448201526b34b9ba32b73a103a37b5b2b760a11b6064820152608401610665565b506000908152600460205260409020546001600160a01b031690565b6000610a2482610c7c565b9050806001600160a01b0316836001600160a01b03161415610a925760405162461bcd60e51b815260206004820152602160248201527f4552433732313a20617070726f76616c20746f2063757272656e74206f776e656044820152603960f91b6064820152608401610665565b336001600160a01b0382161480610aae5750610aae813361058c565b610b205760405162461bcd60e51b815260206004820152603860248201527f4552433732313a20617070726f76652063616c6c6572206973206e6f74206f7760448201527f6e6572206e6f7220617070726f76656420666f7220616c6c00000000000000006064820152608401610665565b6108ed8383611384565b6000610b3560075490565b905090565b610b45335b826113f2565b610b615760405162461bcd60e51b815260040161066590612246565b6108ed8383836114e9565b6108ed83838360405180602001604052806000815250610ed5565b610b9033610b3f565b610bf55760405162461bcd60e51b815260206004820152603060248201527f4552433732314275726e61626c653a2063616c6c6572206973206e6f74206f7760448201526f1b995c881b9bdc88185c1c1c9bdd995960821b6064820152608401610665565b61068181611694565b6006546001600160a01b03163314610c465760405162461bcd60e51b815260206004820181905260248201526000805160206123d38339815191526044820152606401610665565b600f80546001600160a01b03831663010000000276ffffffffffffffffffffffffffffffffffffffff0000001990911617905550565b6000818152600260205260408120546001600160a01b03168061061b5760405162461bcd60e51b815260206004820152602960248201527f4552433732313a206f776e657220717565727920666f72206e6f6e657869737460448201526832b73a103a37b5b2b760b91b6064820152608401610665565b60006001600160a01b038216610d5e5760405162461bcd60e51b815260206004820152602a60248201527f4552433732313a2062616c616e636520717565727920666f7220746865207a65604482015269726f206164647265737360b01b6064820152608401610665565b506001600160a01b031660009081526003602052604090205490565b6006546001600160a01b03163314610dc25760405162461bcd60e51b815260206004820181905260248201526000805160206123d38339815191526044820152606401610665565b610dcc600061173b565b565b606060018054610901906120b5565b600a8054610dea906120b5565b80601f0160208091040260200160405190810160405280929190818152602001828054610e16906120b5565b8015610e635780601f10610e3857610100808354040283529160200191610e63565b820191906000526020600020905b815481529060010190602001808311610e4657829003601f168201915b505050505081565b6006546001600160a01b03163314610eb35760405162461bcd60e51b815260206004820181905260248201526000805160206123d38339815191526044820152606401610665565b8051610ec6906008906020840190611c97565b5050565b610ec633838361178d565b610edf33836113f2565b610efb5760405162461bcd60e51b815260040161066590612246565b610f078484848461185c565b50505050565b6000818152600260205260409020546060906001600160a01b0316610f8c5760405162461bcd60e51b815260206004820152602f60248201527f4552433732314d657461646174613a2055524920717565727920666f72206e6f60448201526e3732bc34b9ba32b73a103a37b5b2b760891b6064820152608401610665565b600f5462010000900460ff1661102e57600a8054610fa9906120b5565b80601f0160208091040260200160405190810160405280929190818152602001828054610fd5906120b5565b80156110225780601f10610ff757610100808354040283529160200191611022565b820191906000526020600020905b81548152906001019060200180831161100557829003601f168201915b50505050509050919050565b60006008805461103d906120b5565b905011611059576040518060200160405280600081525061061b565b60086110648361188f565b604051602001611075929190612297565b60405160208183030381529060405292915050565b6006546001600160a01b031633146110d25760405162461bcd60e51b815260206004820181905260248201526000805160206123d38339815191526044820152606401610665565b600e55565b6006546001600160a01b0316331461111f5760405162461bcd60e51b815260206004820181905260248201526000805160206123d38339815191526044820152606401610665565b8051610ec6906009906020840190611c97565b6006546001600160a01b0316331461117a5760405162461bcd60e51b815260206004820181905260248201526000805160206123d38339815191526044820152606401610665565b6001600160a01b0381166111df5760405162461bcd60e51b815260206004820152602660248201527f4f776e61626c653a206e6577206f776e657220697320746865207a65726f206160448201526564647265737360d01b6064820152608401610665565b6106818161173b565b60006001600160e01b031982166380ac58cd60e01b148061121957506001600160e01b03198216635b5e139f60e01b145b8061061b57506301ffc9a760e01b6001600160e01b031983161461061b565b600654600160a01b900460ff16156112855760405162461bcd60e51b815260206004820152601060248201526f14185d5cd8589b194e881c185d5cd95960821b6044820152606401610665565b6006805460ff60a01b1916600160a01b1790557f62e78cea01bee320cd4e420270b5ea74000d11b0c9f74754ebdbfc544b05a2586112c03390565b6040516001600160a01b03909116815260200160405180910390a1565b600654600160a01b900460ff166113365760405162461bcd60e51b815260206004820152601460248201527f5061757361626c653a206e6f74207061757365640000000000000000000000006044820152606401610665565b6006805460ff60a01b191690557f5db9ee0a495bf2e6ff9c91a7834c1ba4fdd244a5e8aa4e537bd38aeae4b073aa336112c0565b610ec682826040518060200160405280600081525061198d565b600081815260046020526040902080546001600160a01b0319166001600160a01b03841690811790915581906113b982610c7c565b6001600160a01b03167f8c5be1e5ebec7d5bd14f71427d1e84f3dd0314c0f7b2291e5b200ac8c7c3b92560405160405180910390a45050565b6000818152600260205260408120546001600160a01b031661146b5760405162461bcd60e51b815260206004820152602c60248201527f4552433732313a206f70657261746f7220717565727920666f72206e6f6e657860448201526b34b9ba32b73a103a37b5b2b760a11b6064820152608401610665565b600061147683610c7c565b9050806001600160a01b0316846001600160a01b031614806114b15750836001600160a01b03166114a684610984565b6001600160a01b0316145b806114e157506001600160a01b0380821660009081526005602090815260408083209388168352929052205460ff165b949350505050565b826001600160a01b03166114fc82610c7c565b6001600160a01b0316146115645760405162461bcd60e51b815260206004820152602960248201527f4552433732313a207472616e73666572206f6620746f6b656e2074686174206960448201526839903737ba1037bbb760b91b6064820152608401610665565b6001600160a01b0382166115c65760405162461bcd60e51b8152602060048201526024808201527f4552433732313a207472616e7366657220746f20746865207a65726f206164646044820152637265737360e01b6064820152608401610665565b6115d18383836119c0565b6115dc600082611384565b6001600160a01b03831660009081526003602052604081208054600192906116059084906122bc565b90915550506001600160a01b03821660009081526003602052604081208054600192906116339084906121ab565b909155505060008181526002602052604080822080546001600160a01b0319166001600160a01b0386811691821790925591518493918716917fddf252ad1be2c89b69c2b068fc378daa952ba7f163c4a11628f55a4df523b3ef91a4505050565b600061169f82610c7c565b90506116ad816000846119c0565b6116b8600083611384565b6001600160a01b03811660009081526003602052604081208054600192906116e19084906122bc565b909155505060008281526002602052604080822080546001600160a01b0319169055518391906001600160a01b038416907fddf252ad1be2c89b69c2b068fc378daa952ba7f163c4a11628f55a4df523b3ef908390a45050565b600680546001600160a01b038381166001600160a01b0319831681179093556040519116919082907f8be0079c531659141344cd1fd0a4f28419497f9722a3daafe3b4186f6b6457e090600090a35050565b816001600160a01b0316836001600160a01b031614156117ef5760405162461bcd60e51b815260206004820152601960248201527f4552433732313a20617070726f766520746f2063616c6c6572000000000000006044820152606401610665565b6001600160a01b03838116600081815260056020908152604080832094871680845294825291829020805460ff191686151590811790915591519182527f17307eab39ab6107e8899845ad3d59bd9653f200f220920489ca2b5937696c31910160405180910390a3505050565b6118678484846114e9565b611873848484846119cb565b610f075760405162461bcd60e51b8152600401610665906122d3565b6060816118b35750506040805180820190915260018152600360fc1b602082015290565b8160005b81156118dd57806118c78161222b565b91506118d69050600a8361233b565b91506118b7565b60008167ffffffffffffffff8111156118f8576118f8611d9a565b6040519080825280601f01601f191660200182016040528015611922576020820181803683370190505b5090505b84156114e1576119376001836122bc565b9150611944600a8661234f565b61194f9060306121ab565b60f81b81838151811061196457611964612363565b60200101906001600160f81b031916908160001a905350611986600a8661233b565b9450611926565b6119978383611ac9565b6119a460008484846119cb565b6108ed5760405162461bcd60e51b8152600401610665906122d3565b6108ed838383611c17565b60006001600160a01b0384163b15611abe57604051630a85bd0160e11b81526001600160a01b0385169063150b7a0290611a0f903390899088908890600401612379565b6020604051808303816000875af1925050508015611a4a575060408051601f3d908101601f19168201909252611a47918101906123b5565b60015b611aa4573d808015611a78576040519150601f19603f3d011682016040523d82523d6000602084013e611a7d565b606091505b508051611a9c5760405162461bcd60e51b8152600401610665906122d3565b805181602001fd5b6001600160e01b031916630a85bd0160e11b1490506114e1565b506001949350505050565b6001600160a01b038216611b1f5760405162461bcd60e51b815260206004820181905260248201527f4552433732313a206d696e7420746f20746865207a65726f20616464726573736044820152606401610665565b6000818152600260205260409020546001600160a01b031615611b845760405162461bcd60e51b815260206004820152601c60248201527f4552433732313a20746f6b656e20616c7265616479206d696e746564000000006044820152606401610665565b611b90600083836119c0565b6001600160a01b0382166000908152600360205260408120805460019290611bb99084906121ab565b909155505060008181526002602052604080822080546001600160a01b0319166001600160a01b03861690811790915590518392907fddf252ad1be2c89b69c2b068fc378daa952ba7f163c4a11628f55a4df523b3ef908290a45050565b6006546001600160a01b031633146108ed57600654600160a01b900460ff16156108ed5760405162461bcd60e51b815260206004820152602b60248201527f4552433732315061757361626c653a20746f6b656e207472616e73666572207760448201526a1a1a5b19481c185d5cd95960aa1b6064820152608401610665565b828054611ca3906120b5565b90600052602060002090601f016020900481019282611cc55760008555611d0b565b82601f10611cde57805160ff1916838001178555611d0b565b82800160010185558215611d0b579182015b82811115611d0b578251825591602001919060010190611cf0565b50611d17929150611d1b565b5090565b5b80821115611d175760008155600101611d1c565b6001600160e01b03198116811461068157600080fd5b600060208284031215611d5857600080fd5b8135611d6381611d30565b9392505050565b80358015158114611d7a57600080fd5b919050565b600060208284031215611d9157600080fd5b611d6382611d6a565b634e487b7160e01b600052604160045260246000fd5b600067ffffffffffffffff80841115611dcb57611dcb611d9a565b604051601f8501601f19908116603f01168101908282118183101715611df357611df3611d9a565b81604052809350858152868686011115611e0c57600080fd5b858560208301376000602087830101525050509392505050565b600082601f830112611e3757600080fd5b611d6383833560208501611db0565b60008060408385031215611e5957600080fd5b823567ffffffffffffffff811115611e7057600080fd5b611e7c85828601611e26565b95602094909401359450505050565b60005b83811015611ea6578181015183820152602001611e8e565b83811115610f075750506000910152565b60008151808452611ecf816020860160208601611e8b565b601f01601f19169290920160200192915050565b602081526000611d636020830184611eb7565b600060208284031215611f0857600080fd5b5035919050565b80356001600160a01b0381168114611d7a57600080fd5b60008060408385031215611f3957600080fd5b611f4283611f0f565b946020939093013593505050565b600080600060608486031215611f6557600080fd5b611f6e84611f0f565b9250611f7c60208501611f0f565b9150604084013590509250925092565b600060208284031215611f9e57600080fd5b611d6382611f0f565b600060208284031215611fb957600080fd5b813567ffffffffffffffff811115611fd057600080fd5b6114e184828501611e26565b60008060408385031215611fef57600080fd5b611ff883611f0f565b915061200660208401611d6a565b90509250929050565b6000806000806080858703121561202557600080fd5b61202e85611f0f565b935061203c60208601611f0f565b925060408501359150606085013567ffffffffffffffff81111561205f57600080fd5b8501601f8101871361207057600080fd5b61207f87823560208401611db0565b91505092959194509250565b6000806040838503121561209e57600080fd5b6120a783611f0f565b915061200660208401611f0f565b600181811c908216806120c957607f821691505b602082108114156120ea57634e487b7160e01b600052602260045260246000fd5b50919050565b8054600090600181811c908083168061210a57607f831692505b602080841082141561212c57634e487b7160e01b600052602260045260246000fd5b81801561214057600181146121515761217d565b60ff1986168952848901965061217d565b876000528160002060005b868110156121755781548b82015290850190830161215c565b505084890196505b50505050505092915050565b6000611d6382846120f0565b634e487b7160e01b600052601160045260246000fd5b600082198211156121be576121be612195565b500190565b60008160001904831182151516156121dd576121dd612195565b500290565b60208082526029908201527f526574726f417065436c75623a205061796d656e742069732062656c6f77207460408201526868652050726963652160b81b606082015260800190565b600060001982141561223f5761223f612195565b5060010190565b60208082526031908201527f4552433732313a207472616e736665722063616c6c6572206973206e6f74206f6040820152701ddb995c881b9bdc88185c1c1c9bdd9959607a1b606082015260800190565b60006122a382856120f0565b83516122b3818360208801611e8b565b01949350505050565b6000828210156122ce576122ce612195565b500390565b60208082526032908201527f4552433732313a207472616e7366657220746f206e6f6e20455243373231526560408201527131b2b4bb32b91034b6b83632b6b2b73a32b960711b606082015260800190565b634e487b7160e01b600052601260045260246000fd5b60008261234a5761234a612325565b500490565b60008261235e5761235e612325565b500690565b634e487b7160e01b600052603260045260246000fd5b60006001600160a01b038087168352808616602084015250836040830152608060608301526123ab6080830184611eb7565b9695505050505050565b6000602082840312156123c757600080fd5b8151611d6381611d3056fe4f776e61626c653a2063616c6c6572206973206e6f7420746865206f776e6572a2646970667358221220d2509e42e52f0c9a4bd9588a9347ad8288a53f66688ecf3b59b03e740ceb48a164736f6c634300080b00334f776e61626c653a2063616c6c6572206973206e6f7420746865206f776e6572",
  "immutableReferences": {},
  "source": "// SPDX-License-Identifier: MIT\r\npragma solidity ^0.8.0;\r\n\r\nimport \"@openzeppelin/contracts/token/ERC721/ERC721.sol\";\r\nimport \"@openzeppelin/contracts/token/ERC721/extensions/ERC721Burnable.sol\";\r\nimport \"@openzeppelin/contracts/access/Ownable.sol\";\r\nimport \"@openzeppelin/contracts/utils/math/SafeMath.sol\";\r\nimport \"@openzeppelin/contracts/utils/Counters.sol\";\r\nimport \"./ERC721Pausable.sol\";\r\n\r\ncontract RetroApeClub is  Ownable, ERC721Burnable, ERC721Pausable{\r\n    //using SafeMath for uint256;\r\n    using Counters for Counters.Counter;\r\n    using Strings for uint256;\r\n\r\n    Counters.Counter private _tokenCounter;\r\n\r\n    string private _baseTokenUri;\r\n    string private _signerToken;\r\n    string public placeholder;\r\n\r\n    uint256 public maxRetroApeClub = 1000;\r\n    uint256 public RetroApeClubPrice = 15 * 10 ** 16;\r\n    uint256 public RetroApeClubWhitelistPrice = 1 * 10 ** 17;\r\n    uint256 public whitelistSaleEnd;\r\n\r\n    bool public presaleStatus = false;\r\n    bool public isReserveMinted = false;\r\n    bool public isRevealed = false;\r\n    \r\n    address financeAddress = 0x1655147A35e6Cafc1d6E587414286e6287698B7f; // address to be used 0x0000\r\n    //address private signer;\r\n\r\n    event mintRetroApeClub(uint256 indexed id, address minter);\r\n\r\n    constructor(string memory baseUri, string memory _signer) ERC721(\"RetroApeClub\", \"RAC\"){\r\n        setBaseUri(baseUri);\r\n        pause(true);\r\n        _signerToken = _signer;\r\n    }\r\n\r\n    function totalSupply() public view returns(uint){\r\n        return _tokenCounter.current();\r\n    }\r\n    \r\n    function _baseURI() internal view virtual override returns (string memory) {\r\n        return _baseTokenUri;\r\n    }\r\n\r\n    function tokenURI(uint256 tokenId) public view virtual override returns (string memory) {\r\n        require(_exists(tokenId), \"ERC721Metadata: URI query for nonexistent token\");\r\n\r\n        if(!isRevealed){\r\n            return placeholder;\r\n        }\r\n        //string memory baseURI = _baseURI();\r\n        return bytes(_baseTokenUri).length > 0 ? string(abi.encodePacked(_baseTokenUri, tokenId.toString())) : \"\";\r\n    }\r\n\r\n    // function walletOf()public view returns(uint256[] memory){\r\n    //     address _owner = msg.sender;\r\n    //     uint256 numberOfOwnedNFT = balanceOf(_owner);\r\n    //     uint256[] memory ownerIds = new uint256[](numberOfOwnedNFT);\r\n\r\n    //     for(uint256 index = 0; index < numberOfOwnedNFT; index++){\r\n    //         ownerIds[index] = tokenOfOwnerByIndex(_owner, index);\r\n    //     }\r\n\r\n    //     return ownerIds;\r\n    // }\r\n\r\n    function setSigner(string memory _signer)public onlyOwner{\r\n        _signerToken = _signer;\r\n        return;\r\n    }\r\n\r\n    function setWhitelistSaleEnd(uint256 _whitelistSaleEnd)public onlyOwner{\r\n        whitelistSaleEnd = _whitelistSaleEnd;\r\n        return;\r\n    }\r\n\r\n    function setFinanceAddress(address _financeAddress)public onlyOwner{\r\n        financeAddress = _financeAddress;\r\n        return;\r\n    }\r\n\r\n    function mint(string memory _signer, uint256 _quantity) public payable{\r\n        require(keccak256(bytes(_signer)) == keccak256(bytes(_signerToken)),\"RetroApeClub: Cannot Mint Directly to Contract\");\r\n        require((totalSupply() + _quantity) <= 10 , \"RetroApeClub: Cannot mint beyond max supply!\");\r\n\r\n        if(block.timestamp <= whitelistSaleEnd){\r\n            require(msg.value >= (RetroApeClubWhitelistPrice * _quantity), \"RetroApeClub: Payment is below the Price!\");\r\n            require((totalSupply() + _quantity) <= 5 , \"RetroApeClub: Whitelist sale is sold out!\");\r\n        }else if(block.timestamp > whitelistSaleEnd){\r\n            require(msg.value >= (RetroApeClubPrice * _quantity), \"RetroApeClub: Payment is below the Price!\");\r\n        }\r\n\r\n        payable(financeAddress).transfer(msg.value);\r\n        //_mintARetroApeClub(msg.sender, _tokenCounter.current());\r\n        for(uint256 pointer = 0; pointer < _quantity; pointer++){\r\n            _safeMint(msg.sender, totalSupply());\r\n            _tokenCounter.increment();\r\n        }\r\n        return;\r\n    }\r\n\r\n    function setBaseUri(string memory baseUri) public onlyOwner{\r\n        _baseTokenUri = baseUri;\r\n    }\r\n\r\n    function pause(bool isPaused)public onlyOwner{\r\n        if(isPaused == true){\r\n            _pause();\r\n            return;\r\n        }\r\n        \r\n        _unpause();\r\n    }\r\n\r\n    function _beforeTokenTransfer(\r\n        address from,\r\n        address to,\r\n        uint256 tokenId\r\n    ) internal virtual override(ERC721, ERC721Pausable) {\r\n        super._beforeTokenTransfer(from, to, tokenId);\r\n    }\r\n\r\n     function supportsInterface(bytes4 interfaceId) public view virtual override(ERC721) returns (bool) {\r\n        return super.supportsInterface(interfaceId);\r\n    }\r\n}",
  "sourcePath": "C:\\REZAREKT-D\\Documents\\Projects\\Work\\Clients\\Retro Ape Club\\ERC721\\contracts\\RetroApeClub.sol",
  "compiler": {
    "name": "solc",
    "version": "0.8.11+commit.d7f03943.Emscripten.clang"
  },
  "schemaVersion": "3.4.3",
  "updatedAt": "2022-01-12T05:16:18.494Z",
  "networkType": "ethereum",
  "devdoc": {
    "kind": "dev",
    "methods": {
      "approve(address,uint256)": {
        "details": "See {IERC721-approve}."
      },
      "balanceOf(address)": {
        "details": "See {IERC721-balanceOf}."
      },
      "burn(uint256)": {
        "details": "Burns `tokenId`. See {ERC721-_burn}. Requirements: - The caller must own `tokenId` or be an approved operator."
      },
      "getApproved(uint256)": {
        "details": "See {IERC721-getApproved}."
      },
      "isApprovedForAll(address,address)": {
        "details": "See {IERC721-isApprovedForAll}."
      },
      "name()": {
        "details": "See {IERC721Metadata-name}."
      },
      "owner()": {
        "details": "Returns the address of the current owner."
      },
      "ownerOf(uint256)": {
        "details": "See {IERC721-ownerOf}."
      },
      "paused()": {
        "details": "Returns true if the contract is paused, and false otherwise."
      },
      "renounceOwnership()": {
        "details": "Leaves the contract without owner. It will not be possible to call `onlyOwner` functions anymore. Can only be called by the current owner. NOTE: Renouncing ownership will leave the contract without an owner, thereby removing any functionality that is only available to the owner."
      },
      "safeTransferFrom(address,address,uint256)": {
        "details": "See {IERC721-safeTransferFrom}."
      },
      "safeTransferFrom(address,address,uint256,bytes)": {
        "details": "See {IERC721-safeTransferFrom}."
      },
      "setApprovalForAll(address,bool)": {
        "details": "See {IERC721-setApprovalForAll}."
      },
      "supportsInterface(bytes4)": {
        "details": "See {IERC165-supportsInterface}."
      },
      "symbol()": {
        "details": "See {IERC721Metadata-symbol}."
      },
      "tokenURI(uint256)": {
        "details": "See {IERC721Metadata-tokenURI}."
      },
      "transferFrom(address,address,uint256)": {
        "details": "See {IERC721-transferFrom}."
      },
      "transferOwnership(address)": {
        "details": "Transfers ownership of the contract to a new account (`newOwner`). Can only be called by the current owner."
      }
    },
    "version": 1
  },
  "userdoc": {
    "kind": "user",
    "methods": {},
    "version": 1
  }
}